:100000000C942A000C9434000C9434000C943400AA
:100010000C9434000C9434000C9434000C94340090
:100020000C9434000C9434000C9434000C94340080
:100030000C9434000C9434000C9434000C94340070
:100040000C9434000C9434000C9434000C94340060
:100050000C94340011241FBECFE5D8E0DEBFCDBF25
:100060000E943C000C9472000C94000081B3806FDD
:1000700081BB8FEE82BB08950E94360082B38F7DD4
:1000800082BB82B3806282BB82B38F7B82BB2FEF45
:1000900089E698E1215080409040E1F700C00000DF
:1000A00082B3806482BB82B38F7782BB2FEF89E6F5
:1000B00098E1215080409040E1F700C0000082B3F9
:1000C000806882BB82B3806182BB2FEF89E698E1B2
:1000D000215080409040E1F700C0000082B38F7E45
:0800E00082BBCCCFF894FFCFE6
:00000001FF
