:100000000C942A000C9457000C9478000C949900DE
:100010000C9434000C9434000C9434000C94340090
:100020000C9434000C9434000C9434000C94340080
:100030000C9434000C9434000C9434000C94340070
:100040000C9434000C9434000C9434000C94340060
:100050000C94340011241FBECFE5D8E0DEBFCDBF25
:100060000E944F000C94BA000C94000081B38B7F67
:1000700081BB81B3877F81BB87B38B7F87BB0895AB
:1000800081B3806481BB81B3806281BB81B38068AE
:1000900081BB089580EE8BBF85E085BF08950E94E7
:1000A00036000E9440000E944A007894FFCF1F92C1
:1000B0000F920FB60F9211242F938F939F93F89462
:1000C00082B3806282BB2FE784E89EE121508040AA
:1000D0009040E1F700C0000082B38F7D82BB78942E
:1000E0009F918F912F910F900FBE0F901F90189599
:1000F0001F920F920FB60F9211242F938F939F93FD
:10010000F89482B3806882BB2FE784E89EE1215097
:1001100080409040E1F700C0000082B38F7782BB3F
:1001200078949F918F912F910F900FBE0F901F90F9
:1001300018951F920F920FB60F9211242F938F9341
:100140009F93F89482B3806482BB2FE784E89EE19A
:10015000215080409040E1F700C0000082B38F7BC7
:1001600082BB78949F918F912F910F900FBE0F902B
:080170001F901895F894FFCFD1
:00000001FF
