S00D000054696D65722E7372656316
S11300000C942A000C943C000C943C000C943C008E
S11300100C943C000C943C000C943C000C943C006C
S11300200C943C000C943C000C949E000C94C50071
S11300300C943C000C943C000C943C000C943C004C
S11300400C943C000C943C000C943C000C943C003C
S11300500C943C0011241FBECFE5D8E0DEBFCDBF19
S113006020E0A0E6B0E001C01D92A736B207E1F798
S11300700E9442000C94F1000C9400008BB3809514
S11300808BBB0895CF93DF9300D000D0CDB7DEB7FC
S11300908FEF8ABB78948EE390E00E94990088E009
S11300A0898382E08A831B828C8380EF0E9496007E
S11300B0CE0101960E945D00FFCF009799F19093C5
S11300C0660080936500FC018081882331F08034D0
S11300D021F0883011F0883419F493B7892B83BF49
S11300E0E0916500F09166008381883018F493B73D
S11300F0892B83BFE0916500F0916600818188239C
S113010011F0823019F499B7892B89BFE091650009
S1130110F09166008281823038F499B7892B89BFC7
S113012080E0089581E0089581E008958CBF81E026
S11301300895909364008093630008951F920F9232
S11301400FB60F9211242F933F934F935F936F93A6
S11301507F938F939F93AF93BF93EF93FF93E0911C
S11301606300F09164000995FF91EF91BF91AF9105
S11301709F918F917F916F915F914F913F912F91BB
S11301800F900FBE0F901F9018951F920F920FB6ED
S11301900F9211242F933F934F935F936F937F9309
S11301A08F939F93AF93BF93EF93FF9380916200DC
S11301B08F5F80936200E0916000F0916100099587
S11301C0FF91EF91BF91AF919F918F917F916F912B
S11301D05F914F913F912F910F900FBE0F901F9001
S10901E01895F894FFCF0E
S9030000FC
