S01200004C43445F4B65797061642E7372656382
S11300000C942A000C943F000C943F000C943F0085
S11300100C943F000C943F000C943F000C943F0060
S11300200C943F000C943F000C943F000C943F0050
S11300300C943F000C943F000C943F000C943F0040
S11300400C943F000C943F000C943F000C943F0030
S11300500C943F0011241FBECFE5D8E0DEBFCDBF16
S113006010E0A0E6B0E0E2EAF2E002C005900D92F2
S1130070A037B107D9F70E943F010C944F010C94AB
S1130080000081B3807F81BB81B3806F81BB8FEF20
S113009082BB089560E070E07BC082B3806F82BB56
S11300A022B3FB01EE0FFF1FE05AFF4F81E090E007
S11300B0008002C0880F991F0A94E2F7809582237A
S11300C082BB40E050E05EC080B3FA01EE0FFF1F38
S11300D0E859FF4F208190E0022E02C09595879544
S11300E00A94E2F780FD4CC080B390E0022E02C077
S11300F0959587950A94E2F780FFF6CF61307105F4
S1130100C9F024F46115710541F03AC062307105FB
S1130110F1F06330710541F133C041155105F1F13E
S113012041305105E9F142305105E1F143305105C7
S113013039F53AC041155105C9F141305105C1F1B4
S113014042305105B9F143305105D1F435C0411560
S11301505105A1F14130510599F14230510591F118
S11301604330510569F430C04115510579F14130EE
S1130170510571F14230510569F14330510561F186
S11301804F5F5F4F443051050CF49ECF6F5F7F4F3C
S1130190643071050CF481CF8EE4089587E30895EB
S11301A084E3089581E308958FE4089588E308952E
S11301B085E3089582E3089580E3089589E308952B
S11301C086E3089583E308958DE308958FE2089507
S11301D08AE208958DE208958BE2089588B38860D9
S11301E088BB83ED90E30197F1F700C0000088B36A
S11301F0877F88BB089598B3997F98BB8BBB89EFA1
S113020090E00197F1F700C000000E94EE0008950D
S113021081E00E94FB00089587E893E10197F1F7DC
S113022000C000008FEF8ABB87B38E6087BB88B3A2
S1130230817F88BB85EA9EE00197F1F700C000004A
S11302400E94080188E30E94FB008FE00E94FB00EB
S113025080E80E94FB0086E00E94FB00089598B3AA
S11302609B7F98BB98B3926098BB8BBB89EF90E05F
S11302700197F1F700C000000E94EE0008950E946B
S11302800C010E9441000E944A008E34E1F38F3435
S113029019F40E940801F7CF0E942F01F4CFF894BB
S10502A0FFCF8A
S11302A2040005000600070000000100020003002C
S9030000FC
