S00C000057444F472E73726563E7
S11300000C942A000C9434000C9434000C943400A6
S11300100C9434000C9434000C9434000C9434008C
S11300200C9434000C9434000C9434000C9434007C
S11300300C9434000C9434000C9434000C9434006C
S11300400C9434000C9434000C9434000C9434005C
S11300500C94340011241FBECFE5D8E0DEBFCDBF21
S11300600E9448000C9466000C94000081B58860DE
S113007081BD81B5826081BD81B5846081BD0895F3
S113008081B5886081BD81B5806181BD11BC089551
S113009081B3816081BB2FEF83EC99E021508040D4
S11300A09040E1F700C000000E94360092B381E066
S11300B0892782BB2FEF89E698E121508040904048
S11300C0E1F700C000000E944000EECFF894FFCF9B
S9030000FC
